:100000000C9434000C943E000C943E000C943E0082
:100010000C943E000C943E000C943E000C943E0068
:100020000C943E000C943E000C943E000C943E0058
:100030000C943E000C943E000C943E000C943E0048
:100040000C943E000C943E000C943E000C943E0038
:100050000C943E000C943E000C943E000C943E0028
:100060000C943E000C943E0011241FBECFEFD8E04C
:10007000DEBFCDBF0E9440000C946D000C940000C8
:1000800083E087B991E082E098B92FE73FE442E14D
:10009000215030404040E1F700C0000018B82FE781
:1000A0003FE442E1215030404040E1F700C0000011
:1000B00088B92FE73FE442E1215030404040E1F76A
:1000C00000C0000018B82FE73FE442E12150304063
:0E00D0004040E1F700C00000D7CFF894FFCF0A
:00000001FF
