S014000054657374536576656E466F722E7372656348
S11300000C9434000C9451000C9451000C94510045
S11300100C9451000C9451000C9451000C94510018
S11300200C9451000C9451000C9451000C94510008
S11300300C9451000C9451000C9451000C945100F8
S11300400C9451000C9451000C9451000C945100E8
S11300500C9451000C9451000C9451000C945100D8
S11300600C9451000C94510011241FBECFEFD8E022
S1130070DEBFCDBF11E0A0E0B1E0E0E5F1E002C0F9
S113008005900D92A431B107D9F721E0A4E1B1E0C4
S113009001C01D92A631B207E1F70E9453000C94EF
S11300A0A6000C9400008FEF8AB9109215011092EB
S11300B014011CC02FEF85EA9EE02150804090403F
S11300C0E1F700C00000E0911401F0911501EE0F7A
S11300D0FF1FE050FF4F80818BB9809114019091F4
S11300E015010196909315018093140180911401D8
S11300F0909115010A97F4F289E090E0909315012C
S1130100809314011CC02FEF85EA9EE021508040AB
S11301109040E1F700C00000E0911401F091150156
S1130120EE0FFF1FE050FF4F80818BB980911401C7
S1130130909115010197909315018093140180917A
S11301401401909115019923F4F6ADCFF894FFCFE3
S11301503F0006005B004F0066006D007D00070055
S10701607F006F00A9
S9030000FC
