S01A0000436F6E74726F6C6C696E6720616E204C45442E737265639B
S11300000C9434000C943E000C943E000C943E007E
S11300100C943E000C943E000C943E000C943E0064
S11300200C943E000C943E000C943E000C943E0054
S11300300C943E000C943E000C943E000C943E0044
S11300400C943E000C943E000C943E000C943E0034
S11300500C943E000C943E000C943E000C943E0024
S11300600C943E000C943E0011241FBECFEFD8E048
S1130070DEBFCDBF0E9467000C9471000C94000099
S1130080CF93DF9300D000D0CDB7DEB780EA96E8F7
S1130090A1E0B0E089839A83AB83BC8389819A8190
S11300A0AB81BC81AC01BD014150510961097109A9
S11300B049835A836B837C83892B8A2B8B2B71F71F
S11300C00F900F900F900F90DF91CF91089585E1DD
S11300D084B985E185B90E94400015B80E944000AA
S10900E0F8CFF894FFCFF5
S9030000FC
