:100000000C9434000C9451000C9451000C94510049
:100010000C9451000C9451000C9451000C9451001C
:100020000C9451000C9451000C9451000C9451000C
:100030000C9451000C9451000C9451000C945100FC
:100040000C9451000C9451000C9451000C945100EC
:100050000C9451000C9451000C9451000C945100DC
:100060000C9451000C94510011241FBECFEFD8E026
:10007000DEBFCDBF11E0A0E0B1E0E8E0F1E002C0FA
:1000800005900D92A431B107D9F721E0A4E1B1E0C8
:1000900001C01D92A631B207E1F70E9453000C94F3
:1000A00082000C9400008FEF84B91AB88EEF8BB9E0
:1000B000E0911401F0911501EE0FFF1FE050FF4F8A
:1000C000808185B989B18E3F99F780911401909113
:1000D0001501019690931501809314012FEF85EA85
:1000E0009EE0215080409040E1F700C000008091E8
:1000F0001401909115010A97DCF2109215011092EB
:080100001401D6CFF894FFCFE3
:100108003F0006005B004F0066006D007D000700A1
:040118007F006F00F5
:00000001FF
