S00E00003332384255542E737265638E
S11300000C9434000C943E000C943E000C943E007E
S11300100C943E000C943E000C943E000C943E0064
S11300200C943E000C943E000C943E000C943E0054
S11300300C943E000C943E000C943E000C943E0044
S11300400C943E000C943E000C943E000C943E0034
S11300500C943E000C943E000C943E000C943E0024
S11300600C943E000C943E0011241FBECFEFD8E048
S1130070DEBFCDBF0E9440000C9459000C940000D8
S11300808AB18B7F8AB98BB184608BB984B181606A
S113009084B94A990AC085B1816085B98FE39CE926
S11300A00197F1F700C00000F4CF85B18E7F85B9C8
S10900B0F0CFF894FFCF2D
S9030000FC
