S014000054657374536576656E466F722E7372656348
S11300000C9434000C9451000C9451000C94510045
S11300100C9451000C9451000C9451000C94510018
S11300200C9451000C9451000C9451000C94510008
S11300300C9451000C9451000C9451000C945100F8
S11300400C9451000C9451000C9451000C945100E8
S11300500C9451000C9451000C9451000C945100D8
S11300600C9451000C94510011241FBECFEFD8E022
S1130070DEBFCDBF11E0A0E0B1E0E8EFF0E002C0E8
S113008005900D92A431B107D9F721E0A4E1B1E0C4
S113009001C01D92A631B207E1F70E9453000C94EF
S11300A07A000C94000010921501109214018091B2
S11300B01401909115010997B4F72FEF85EA9EE09A
S11300C0215080409040E1F700C00000E09114010D
S11300D0F0911501EE0FFF1FE050FF4F80818BB9A7
S11300E080911401909115010196909315018093CC
S10B00F01401DDCFF894FFCFE9
S11300F83F0006005B004F0066006D007D000700AE
S10701087F006F0001
S9030000FC
