:100000000C9434000C943E000C943E000C943E0082
:100010000C943E000C943E000C943E000C943E0068
:100020000C943E000C943E000C943E000C943E0058
:100030000C943E000C943E000C943E000C943E0048
:100040000C943E000C943E000C943E000C943E0038
:100050000C943E000C943E000C943E000C943E0028
:100060000C943E000C943E0011241FBECFEFD8E04C
:10007000DEBFCDBF0E9440000C9460000C940000D5
:1000800014B815B81AB88FEF8BB989B18E3FB1F497
:100090008FEF85B92FEF85EA9EE021508040904098
:1000A000E1F700C0000015B82FEF85EA9EE021506F
:1000B00080409040E1F700C00000E7CF15B8E5CFE1
:0400C000F894FFCFE2
:00000001FF
