S02600004C4544206761726C616E64206F6E206D6963726F636F6E74726F6C6C65722E73726563B5
S11300000C9434000C943E000C943E000C943E007E
S11300100C943E000C943E000C943E000C943E0064
S11300200C943E000C943E000C943E000C943E0054
S11300300C943E000C943E000C943E000C943E0044
S11300400C943E000C943E000C943E000C943E0034
S11300500C943E000C943E000C943E000C943E0024
S11300600C943E000C943E0011241FBECFEFD8E048
S1130070DEBFCDBF0E9440000C94A8000C94000089
S11300801AB88FE787B918B88FEF8BB989B18E3F4B
S1130090B1F48FEF88B92FEF85EA9EE021508040BC
S11300A09040E1F700C0000018B82FEF85EA9EE009
S11300B0215080409040E1F700C0000001C018B812
S11300C089B18D3F09F042C081E088B92FEF85EAFC
S11300D09EE0215080409040E1F700C0000083E0A2
S11300E088B92FEF85EA9EE0215080409040E1F7E7
S11300F000C0000087E088B92FEF85EA9EE0215018
S113010080409040E1F700C000008FE088B92FEFF5
S113011085EA9EE0215080409040E1F700C0000055
S11301208FE188B92FEF85EA9EE02150804090400E
S1130130E1F700C0000018B82FEF85EA9EE02150D7
S113014080409040E1F700C00000A0CF18B89ECFD7
S1070150F894FFCF4D
S9030000FC
