S0260000536576656E207365676D656E7420696E64696361746F72205061727420322E7372656304
S11300000C9434000C943E000C943E000C943E007E
S11300100C943E000C943E000C943E000C943E0064
S11300200C943E000C943E000C943E000C943E0054
S11300300C943E000C943E000C943E000C943E0044
S11300400C943E000C943E000C943E000C943E0034
S11300500C943E000C943E000C943E000C943E0024
S11300600C943E000C943E0011241FBECFEFD8E048
S1130070DEBFCDBF0E9440000C94BC000C94000075
S11300808FEF8AB98FE38BB92FEF85EA9EE0215079
S113009080409040E1F700C0000086E08BB92FEF6C
S11300A085EA9EE0215080409040E1F700C00000C6
S11300B08BE58BB92FEF85EA9EE02150804090407C
S11300C0E1F700C000008FE48BB92FEF85EA9EE0D2
S11300D0215080409040E1F700C0000086E68BB9D3
S11300E02FEF85EA9EE0215080409040E1F700C068
S11300F000008DE68BB92FEF85EA9EE02150804009
S11301009040E1F700C000008DE78BB92FEF85EA3E
S11301109EE0215080409040E1F700C0000087E05D
S11301208BB92FEF85EA9EE0215080409040E1F7A3
S113013000C000008FE78BB92FEF85EA9EE02150C5
S113014080409040E1F700C000008FE68BB92FEFAC
S113015085EA9EE0215080409040E1F700C0000015
S113016080E88BB92FEF85EA9EE0215080409040D3
S10F0170E1F700C0000086CFF894FFCF38
S9030000FC
