S00D00003332385F322E73726563E9
S11300000C9434000C943E000C943E000C943E007E
S11300100C943E000C943E000C943E000C943E0064
S11300200C943E000C943E000C943E000C943E0054
S11300300C943E000C943E000C943E000C943E0044
S11300400C943E000C943E000C943E000C943E0034
S11300500C943E000C943E000C943E000C943E0024
S11300600C943E000C943E0011241FBECFEFD8E048
S1130070DEBFCDBF0E9440000C9463000C940000CE
S11300808AB18B7F8AB98BB184608BB984B181606A
S113009084B94A9916C08FE785B92FEF85EA9EE0A7
S11300A0215080409040E1F700C0000015B82FEFC8
S11300B085EA9EE0215080409040E1F700C00000B6
S10D00C0E8CF15B8E6CFF894FFCF9F
S9030000FC
